:020000040800F2
:1000000000000320D53A000829710008276E000877
:1000100031710008397100084171000800000000CA
:10002000000000000000000000000000497100080E
:1000300051710008000000005971000845340008A3
:100040002D3B00082D3B00082D3B00082D3B0008F0
:100050002D3B00082D3B0008B1220008D5220008E6
:10006000F92200081D230008412300082D3B000849
:100070002D3B00085534000865340008753400082D
:10008000853400082D3B00082D3B00082D3B00085F
:100090002D3B00082D3B00082D3B00086523000880
:1000A0002D3B00082D3B00082D3B00082D3B000890
:1000B0002D3B00082D3B00082D3B00082D3B000880
:1000C0002D3B00082D3B00082D3B00082D3B000870
:1000D0006135000801420008314200086142000811
:1000E000F12300082D3B00082D3B00082D3B0008A4
:1000F0002D3B00082D3B00082D3B00082D3B000840
:100100002D3B00082D3B00082D3B00082D3B00082F
:1001100091420008C14200082D3B00082D3B000819
:100120002D3B00082D3B00082D3B00082D3B00080F
:100130002D3B00082D3B00082D3B00082D3B0008FF
:100140002D3B00082D3B00082D3B00082D3B0008EF
:100150002D3B00082D3B00082D3B0008F142000814
:100160002D3B00082D3B00082D3B00082D3B0008CF
:100170002D3B00082D3B00082D3B0008000000002F
:100180002D3B00082D3B0008214300085143000887
:100190002D3B00082D3B00082D3B00082D3B00089F
:1001A0002D3B00082D3B00082D3B000810B5054CE9
:1001B000237833B9044B13B10448AFF30080012313
:1001C000237010BD3C0900200000000050E800082A
:1001D00008B5064B1BB106480649AFF30080064838
:1001E000036813B1054B03B1984708BD0000000038
:1001F00050E80008400900203809002000000000F5
:1002000080B582B000AF78607B684FF000021A6062
:100210007B680022DA607B6800229A607B6800229B
:100220001A7106F03BFF034618460837BD4680BDED
:1002300080B582B000AF78607B68002B01D10123CC
:1002400057E07B6893F85130DBB2002B06D17B6816
:10025000002283F85020786800F050F87B68022272
:1002600083F851207B681B687A681268126822F054
:1002700040021A607B681B687A6851687A689268E5
:1002800011437A68D26811437A68126911437A6817
:10029000526911437A68926902F4007211437A68D4
:1002A000D26911437A68126A11437A68926A0A43E2
:1002B0001A607B681B687A689269120C02F004016C
:1002C0007A68526A0A435A607B681B687A68D26A05
:1002D0001A617B681B687A681268D26922F400622E
:1002E000DA617B6800225A657B68012283F851201D
:1002F000002318460837BD4680BD00BF80B483B0D8
:1003000000AF78600C37BD465DF8047B704700BFD6
:1003100080B584B000AF78600023FB600023BB6031
:100320007B68002B01D10123C7E07B6893F8A130E3
:10033000DBB2002B06D17B68002283F8A02078680E
:1003400000F0C2F87B68022283F8A1207B681B685A
:100350007A681268926922F070429A617B681B6821
:100360007A68126891697A6850687A68926810436E
:100370007A68D26810437A68126902430A439A6124
:100380007B681A687B681B6899684E4B0B409360CA
:100390007B685B691B04FB607B681B687A6812687A
:1003A00091687A689069FA6802430A439A607B68A8
:1003B0001A687B681B68D968424B0B40D3607B6826
:1003C000DB691B04FB607B681B687A681268D16874
:1003D0007A68106AFA6802430A43DA607B681A682E
:1003E0007B681B681969374B0B4013617B685B6A3C
:1003F0001B04FB607B681B687A68126811697A6865
:10040000906AFA6802430A431A617B681A687B683B
:100410001B6859692B4B0B4053617B68DB6A1B04DB
:10042000FB607B681B687A68126851697A68106B98
:10043000FA6802430A435A617B6893F835301B021D
:10044000FB607B6893F836301B04BB607B681B68DD
:100450007A681268D26A02F07F42DA627B681B68AF
:100460007A681268D16AB868FA6810437A6892F8B4
:10047000342002430A43DA627B681B687A68126898
:10048000526B42F004025A637B681B687A681268F8
:10049000526B42F002025A637B681B687A681268EA
:1004A000926942F001029A617B680022C3F8A4209D
:1004B0007B68012283F8A120002318461037BD462F
:1004C00080BD00BF00F800F080B483B000AF78605A
:1004D0000C37BD465DF8047B704700BFB0B584B0F3
:1004E00000AFF860B9607A60FB6893F8A030012B28
:1004F00001D102232CE0FB68012283F8A020FB68D5
:10050000022283F8A120FA687B68342101FB03F3FF
:10051000134403F13802BB6814461D460FCD0FC4C7
:100520000FCD0FC40FCD0FC42B682360F868B968D6
:100530007A6800F047F8FB681B6801225A62FB6882
:10054000012283F8A120FB68002283F8A020002369
:1005500018461037BD46B0BD80B586B000AFF86014
:10056000B9607A60FB6893F8A030012B01D10223B7
:1005700024E0FB68012283F8A020FB68022283F8B4
:10058000A1207B68342202FB03F33833FA6813445A
:100590007B617B69BA685A61F86879697A6800F0AA
:1005A00011F8FB681B6801225A62FB68012283F87C
:1005B000A120FB68002283F8A020002318461837EA
:1005C000BD4680BD80B489B000AFF860B9607A6084
:1005D0000023FB610023BB6100237B61BB685A6879
:1005E000FB681B68D968914B0B401B0C13441B0420
:1005F000FB61FB681B681A467B68DB01134484338C
:10060000FA68126811467A68D2010A448432526844
:1006100002F470425A60FB681B681A467B68DB0173
:10062000134484331A46BB681968FB681B68D86892
:100630007E4B03401B0C0B44591CFB690B4353605E
:10064000BB68DA68FB681B68DB68C3F30A03134402
:100650001B04FB61FB681B681A467B68DB011344C3
:100660008433FA68126811467A68D2010A448432E7
:10067000926802F470429A60FB681B681A467B68B5
:10068000DB0113448433BA689168FA681268D2684F
:10069000C2F30A020A44511CFA690A439A60FB68D1
:1006A0001B681A467B68DB0113448433FA681268BE
:1006B00011467A68D2010A448432126922F0070294
:1006C0001A61FB681B681A467B68DB01134484339C
:1006D000BA6812691A61BB6893F831301B02FB617A
:1006E000BB6893F832301B04BB61BB689B691B0677
:1006F0007B61FB681B681A467B68DB01134484330B
:100700009B69FB681B681A467B68DB0113448433D2
:1007100000229A61FB681B681A467B68DB01134460
:100720008433BA6892F830201146FA691143BA69E5
:1007300011437A690A439A61FB681B681A467B6811
:10074000DB0113448433FA68126811467A68D201D7
:100750000A448432526922F0FF025A61FB681B6826
:100760001A467B68DB0113448433BA6852695A61C4
:10077000FB681B681A467B68DB01134484331A4606
:10078000FB681B6819467B68DB010B448433DB691B
:1007900023F4E06323F00703D361FB681B681A4668
:1007A0007B68DB0113448433BA68D169BA68126A82
:1007B0000A43DA61FB681B681A467B68DB01134455
:1007C00084339B6AFB681B681A467B68DB01134411
:1007D000843300229A62FB681B681A467B68DB013F
:1007E00013448433BA68526A9A62BB681B69002B4F
:1007F00002D10423FB611DE0BB681B69012B02D100
:100800000323FB6116E0BB681B69042B0BD0BB689C
:100810001B69022B07D0BB681B69032B03D0BB6885
:100820001B69072B04D10223FB6103E00000FF0FCB
:100830000123FB61FB681B681A467B68DB011344DC
:100840008433FA68126811467A68D2010A44843205
:10085000D26A02F0E022DA62FB681B681A467B6803
:10086000DB0113448433BA68926AF96901FB02F22E
:100870001104BA685068BA681268821AF86900FBF5
:1008800002F203320A43DA62FB681B681A467B688D
:10089000DB01134484331A46FB681B6819467B68E6
:1008A000DB010B4484331B6B23F4FF6323F007034A
:1008B0001363FB681B681A467B68DB0113448433AF
:1008C000BA68D26A1A63FB681B681A467B68DB0148
:1008D00013448433FA68126811467A68D2010A44D4
:1008E0008432126842F001021A602437BD465DF876
:1008F000047B704780B500AF072006F021FA6FF047
:100900000B000021002206F025FA6FF00A000021FA
:10091000002206F01FFA6FF009000021002206F005
:1009200019FA6FF004000021002206F013FA6FF0AC
:1009300003000021002206F00DFA6FF001000021F3
:10094000002206F007FA4FF0FF300021002206F0E7
:1009500001FA80BD80B586B000AF3A4B1B68002B12
:100960006CD1384B01221A60374B374A926B42F0F8
:1009700001029A63344B9B6B03F001033B603B68BD
:100980004FF63F037B600223BB600023FB60032321
:100990003B610C237B613B1D2C48194606F00CFD86
:1009A00001237B600223BB600023FB6003233B61C8
:1009B0000C237B613B1D2648194606F0FDFC48F2DE
:1009C00037137B600223BB600023FB6003233B6182
:1009D0000C237B613B1D1F48194606F0EDFC4FF6CA
:1009E00083737B600223BB600023FB6003233B61B6
:1009F0000C237B613B1D1848194606F0DDFC4CF2C8
:100A000003737B600223BB600023FB6003233B6115
:100A10000C237B613B1D1148194606F0CDFC602379
:100A20007B600223BB600023FB6003233B610C233C
:100A30007B613B1D0A48194606F0BEFC1837BD46CF
:100A400080BD00BF58090020003802400014024059
:100A5000000802400018024000100240000C024052
:100A60000004024080B582B000AF7860FFF772FFEB
:100A70000837BD4680BD00BF80B500AF0D480121DD
:100A80004EF6602203F072F80B4B002283F826200A
:100A9000094B00225A84084B0022DA62064B0022DE
:100AA0001A63054B00229A84034B002283F83820F6
:100AB00080BD00BF00480040B009002080B582B072
:100AC00000AF0023BB7100237B71A2E0544B93F86D
:100AD0003830002B05D1534803F0FAF80346FB7178
:100AE00013E04F4B93F83830012B0ED10023BB712C
:100AF0004C4803F02BF90346002B06D1494803F07C
:100B0000E7F80346FB710123BB71454B93F838307E
:100B1000002B02D1FB79002B07D1414B93F83830E1
:100B2000012B72D1BB79002B6FD000237B713C4B22
:100B300093F82630082B0AD0FB792A2B07D1FB79B2
:100B4000184600F03BFC384808F052F85CE0344BA3
:100B500093F826300B2B5BD801A252F823F000BF8C
:100B6000910B00089B0B0008A50B0008AF0B0008B9
:100B7000B90B0008C30B0008CD0B0008D70B000809
:100B8000E10B0008EB0B0008F50B0008FF0B000859
:100B9000FB79184600F04AF836E0FB79184600F079
:100BA000B1F831E0FB79184600F0D8F82CE0FB7979
:100BB000184600F0F9F827E0FB79184600F032F902
:100BC00022E0FB79184600F053F91DE0FB79184646
:100BD00000F07AF918E0FB79184600F0BBF913E051
:100BE000FB79184600F014FA0EE0FB79184600F085
:100BF00005FB09E0FB79184600F026FB04E0FB79D1
:100C0000184600F06BFB00BF02E001237B7100E09F
:100C100000BF7B79002B3FF459AF0837BD4680BD3C
:100C2000B0090020004800406CBD000880B582B0CB
:100C300000AF0346FB712F4B5B8C032B56D82D4B1B
:100C40005B8C2D4AD35CFA799A420DD0294B5B8C90
:100C50002A4AD35CFA799A4206D0264B5B8C284A02
:100C6000D35CFA799A4205D1224B5B8C214AF979FF
:100C7000D15403E0FB79184600F0A0FB1D4B5B8CC0
:100C800001339AB21B4B5A841A4B5B8C042B2DD127
:100C9000184819490AF0B8FE0346002B06D1154B37
:100CA000012283F8262000F06DFB1FE01148134954
:100CB0000AF0AAFE0346002B06D10E4B022283F84F
:100CC000262000F05FFB11E00A480D490AF09CFE67
:100CD0000346002B06D1074B092283F8262000F09B
:100CE00051FB03E0FB79184600F068FB0837BD466E
:100CF00080BD00BFB009002054BD00085CBD0008E5
:100D000064BD000880B582B000AF0346FB71FB797B
:100D10000A2B09D1104B002283F826200E4807F039
:100D200067FF00F02FFB13E00B4B5B8C212B0BD8E4
:100D3000094B5B8C084AF979D154074B5B8C013322
:100D40009AB2054B5A8403E0FB79184600F036FB53
:100D50000837BD4680BD00BFB009002080B582B015
:100D600000AF0346FB71FB79412B08D10D4B0022EC
:100D700083F827200B4B032283F826200FE0FB7912
:100D8000422B08D1074B012283F82720054B032271
:100D900083F8262003E0FB79184600F00FFB0837A4
:100DA000BD4680BDB009002080B582B000AF0346CB
:100DB000FB71FB79662B08D1194B002283F82820A0
:100DC000174B042283F8262027E0FB79752B08D1E6
:100DD000134B012283F82820114B042283F826208C
:100DE0001BE0FB79732B08D10D4B022283F82820DE
:100DF0000B4B042283F826200FE0FB79632B08D1EC
:100E0000074B032283F82820054B042283F8262071
:100E100003E0FB79184600F0D1FA0837BD4680BDE3
:100E2000B009002080B582B000AF0346FB71FB79AA
:100E3000642B08D10D4B012283F829200B4B05228E
:100E400083F826200FE0FB796C2B08D1074B00229A
:100E500083F82920054B052283F8262003E0FB793F
:100E6000184600F0ABFA0837BD4680BDB009002037
:100E700080B582B000AF0346FB71FB790A2B0AD123
:100E8000104B062283F826200E4B00225A840D4870
:100E900007F0AEFE13E00B4B5B8C0F2B0BD8094B0E
:100EA0005B8C084AF979D154064B5B8C01339AB2BA
:100EB000044B5A8403E0FB79184600F07FFA0837A8
:100EC000BD4680BDB009002080B584B000AF0346A8
:100ED000FB71FB790A2B07D11D4B00225A841C4B56
:100EE000072283F8262030E0194B5B8C072B28D88B
:100EF000FB799BB2303B9BB2FB81B7F90E30002BE4
:100F000003DBB7F90E30092B04DDFB79184600F03E
:100F100055FA1AE00E4B1A6B13469B0013445B0004
:100F20001A460B4B1A630A4B1A6BB7F90E301A4468
:100F3000074B1A63064B5B8C01339AB2044B5A84FD
:100F400003E0FB79184600F039FA1037BD4680BD42
:100F5000B009002090B587B002AF0346FB71FB7962
:100F60000A2B1ED1294B00225A84284B082283F8D1
:100F70002620264B012283F83820244B93F82700A3
:100F8000224B93F82810214B1A6B204BDB6A9BB243
:100F90001E4C94F8294000941C4C019406F0E4FF88
:100FA00030E01A4B5B8C032B28D8FB799BB2303B8B
:100FB0009BB2FB81B7F90E30002B03DBB7F90E3083
:100FC000092B04DDFB79184600F0F8F91AE00F4B05
:100FD000DA6A13469B0013445B001A460B4BDA6235
:100FE0000A4BDA6AB7F90E301A44084BDA62074B3B
:100FF0005B8C01339AB2054B5A8403E0FB791846A7
:1010000000F0DCF91437BD4690BD00BFB0090020E8
:1010100080B586B000AF0346FB71764B93F828305D
:10102000002B46D1734B5B8C724A1344FA7983F8D8
:101030003420704B5B8C032B34D16E4B5B6B7B612C
:101040007B69BB606B4B93F827301946694B9B8CCF
:101050001A46684B93F82830084611461A46BB6872
:1010600007F052FE634B9B8C01339AB2614B9A841A
:10107000604B00225A845F4B9B8C1A465D4BDB6AA7
:101080009A420ED35C4807F0B3FD022007F002FE3F
:10109000002007F0FFFD012007F0FCFD00F0C4F97F
:1010A000A4E08EE0534B5B8C01339AB2514B5A84CF
:1010B00087E0504B93F82830012B2FD14D4B5B8CA0
:1010C0004C4AF979D1544B4B5B8C032B1FD14948C7
:1010D00007F09CFE38613B69BB60464B93F82730B4
:1010E0001946444B9B8C1A46424B93F828300846CD
:1010F00011461A46BB6807F007FE3E4B9B8C013336
:101100009AB23C4B9A843B4B00225A8459E0394BAB
:101110005B8C01339AB2374B5A8452E0354B93F8CB
:101120002830022B30D1334B5B8C324AF979D154C1
:10113000304B5B8C032B20D12E4807F067FE034613
:10114000FB60FB68BB602B4B93F827301946294B9B
:101150009B8C1A46274B93F82830084611461A46AE
:10116000BB6807F0D1FD234B9B8C01339AB2214B16
:101170009A84204B00225A8423E01E4B5B8C01335F
:101180009AB21C4B5A841CE01A4B93F82830032B5C
:1011900017D1FB793B72174B93F827301946154B43
:1011A0009B8C1A46134B93F82830084611461A4672
:1011B000BB6807F0A9FD0F4B9B8C01339AB20D4B16
:1011C0009A840C4B9B8C1A460A4BDB6A9A420DD3CD
:1011D000094807F00DFD022007F05CFD002007F034
:1011E00059FD012007F056FD00F01EF91837BD46E5
:1011F00080BD00BFB009002084BD000880B582B06A
:1012000000AF0346FB71FB79412B08D10D4B002247
:1012100083F827200B4B0A2283F826200FE0FB7966
:10122000422B08D1074B012283F82720054B0A22C5
:1012300083F8262003E0FB79184600F0BFF8083752
:10124000BD4680BDB009002080B584B000AF034624
:10125000FB71FB790A2B0BD11F4B00225A841E4BCA
:10126000012283F838201C4B0B2283F8262030E023
:10127000194B5B8C042B28D8FB799BB2303B9BB27B
:10128000FB81B7F90E30002B03DBB7F90E30092BC9
:1012900004DDFB79184600F091F81AE00E4B1A6B4A
:1012A00013469B0013445B001A460B4B1A630A4B10
:1012B0001A6BB7F90E301A44074B1A63064B5B8C56
:1012C00001339AB2044B5A8403E0FB79184600F0CC
:1012D00075F81037BD4680BDB009002080B584B0D8
:1012E00000AF0346FB71254B5B8C244A1344FA790B
:1012F00083F83420214B5B8C032B35D11F4B5B6B68
:10130000FB60FB68BB601D4B93F8273019461B4BF5
:101310001A6B1A4B93F82830084611461A46BB68D8
:1013200007F0F2FC154B00225A84154B93F8243039
:10133000002B05D1114B1B6B9BB2184607F036FAF8
:101340000F4B93F82430012B0BD10C4B1B6B9BB232
:10135000184607F0E1FA094B1B6B9BB2184607F0E1
:1013600091FB00F061F805E0044B5B8C01339AB20D
:10137000024B5A841037BD4680BD00BFB009002023
:101380006009002080B483B000AF00237B6007E0D9
:10139000094A7B68134400221A707B6801337B6022
:1013A0007B68212BF4DD044B00225A840C37BD46A8
:1013B0005DF8047B704700BFB009002080B584B0A1
:1013C00000AF0346FB71144BFB60FB79002B03D08D
:1013D000FB680833FA791A701048114902F092FC40
:1013E000FFF7D0FF0F4B00225A840E4B0022DA6227
:1013F0000C4B00221A630B4B002283F82620F8685E
:1014000007F0F6FB074B00229A84064B002283F874
:1014100038201037BD4680BD9CBD00080048004004
:10142000A8BD0008B009002080B500AFFFF7AAFFF3
:101430000A4B00225A84094B0022DA62074B002231
:101440001A63064B002283F82620044B00229A845C
:10145000024B002283F8382080BD00BFB009002075
:1014600080B483B000AF78600B46FB707B681B686C
:1014700003F04003002B01D1002320E000BF7B6874
:101480009B6803F00203002BF9D07B689B6803F094
:101490008003002BF3D17B680C33FA781A7000BFFD
:1014A0007B689B6803F00103002BF9D07B689B6885
:1014B00003F08003002BF3D17B68DB68DBB21846B6
:1014C0000C37BD465DF8047B704700BF80B586B021
:1014D00000AF05F045FE0346002B01D1022358E082
:1014E0002E4BF0221A802D4B4FF4A0725A802B4BBA
:1014F0004FF05042DA60294B4FF050421A61274BAF
:101500004FF416325A61254B254A5A62234B00226A
:10151000DA61224B4FF6FF721A62204B01221A72D7
:101520001E4B1B7A184600F049F84FF05043FB6001
:101530004FF416333B6102233B72F023BB804FF420
:10154000A073FB8001233B7500F06AFC00F014FBE4
:1015500000F00CFA00F084FA03F030FE3B1D184650
:1015600004F064FA00F05AF800F086F94FF6FF70C4
:1015700000F018F800F094F94FF6FF7000F012F840
:1015800000F07AF9FF2000F0A1F9002000F0B0F996
:10159000002318461837BD4680BD00BF940A0020BE
:1015A000E000002080B582B000AF7860786803F07A
:1015B0002BFF002318460837BD4680BD80B582B09A
:1015C00000AF0346FB71FB79032B01D901231EE019
:1015D000114BFA791A72FB79002B02D0FB79012B9F
:1015E00008D10D4B5A880C4BDA800B4B1A880A4BEA
:1015F0009A8007E0084B1A88074BDA80064B5A8816
:10160000054B9A80FB79184603F0D0FE002318465C
:101610000837BD4680BD00BF940A002080B500AFEA
:10162000054B054A926942F001029A61292000F0B7
:1016300057FA0023184680BD0068014080B483B08B
:1016400000AF02460B46FA80BB800E4B9B88FA889F
:101650009A4204D20B4BDB88BA889A4201D3012309
:1016600009E0084BFA881A85064BBA889A85054B1B
:10167000FA885A85002318460C37BD465DF8047B6E
:10168000704700BF940A002080B483B000AF786038
:10169000044B7A685A62002318460C37BD465DF841
:1016A000047B7047940A002080B483B000AF786058
:1016B0003960064B7A68DA61044B3A681A62002393
:1016C00018460C37BD465DF8047B7047940A00202D
:1016D00080B586B000AF0346FB714E4B1B8D1A469A
:1016E0004C4B5B6A1B781A444A4B9B889A4202DA3D
:1016F000FB790A2B22D1474B9A8D464B5B6A5B786C
:1017000013449AB2434B9A85424B5A8D414B1A85EA
:10171000404B1B8D1A463F4B5B6A1B781A443D4B6E
:101720009B889A4202DB3B4B00221A85394B9A8DEB
:10173000384BDB889A4201D3012366E0FB790A2B00
:1017400062D000237B614FE0324B5B6A5A68FB79C1
:10175000203B3049496A497801FB03F319467B690C
:101760000B445B0013441B88FB6000233B6131E0AA
:101770003B69FA6802FA03F303F40043002B13D029
:10178000244B1A8D3B699BB2134499B2214B9A8D1D
:101790007B699BB213449AB21E4BDB690846114623
:1017A0001A4603F06FFD12E01A4B1A8D3B699BB28B
:1017B000134499B2174B9A8D7B699BB213449AB22A
:1017C000144B1B6A084611461A4603F05BFD3B6941
:1017D00001333B610F4B5B6A1B781A463B699A42A7
:1017E000C6D87B6901337B610A4B5B6A5B781A461A
:1017F0007B699A42A8D8074B1A8D064B5B6A1B7807
:1018000013449AB2034B1A85002318461837BD4675
:1018100080BD00BF940A002080B582B000AF0B46A7
:101820003A600246FA80BB80FA88BB8810461946A7
:101830003A6803F027FD002318460837BD4680BDEF
:1018400080B582B000AF78600CE07B681B781846EA
:10185000FFF73EFF0346002B01D0012307E07B6822
:1018600001337B607B681B78002BEED10023184688
:101870000837BD4680BD00BF80B500AF074B1A6971
:10188000064BDA60054B00221A76044B1B7E184685
:1018900003F0E2FC0023184680BD00BF940A00203C
:1018A00080B500AF084B1A69074B5B691A44064BB9
:1018B000DA60054B01221A76034B1B7E184603F0B3
:1018C000CBFC0023184680BD940A002080B582B06E
:1018D00000AF0346FB71FB79044819460022FEF76E
:1018E0003BFE002318460837BD4680BDEC090020AA
:1018F00080B582B000AF0346FB71FB7904481946FE
:101900000122FEF729FE002318460837BD4680BD98
:10191000EC09002090B585B002AFF880B9807A80DC
:101920003B80F888B9887A883B8800B209B212B245
:101930001BB2BC69009403F0BFFF002318460C37AC
:10194000BD4690BD90B585B002AFF880B9807A8071
:101950003B80F888B9887A883B88BC69009403F09A
:1019600097FD002318460C37BD4690BD80B58EB05C
:1019700000AF384B374A126B42F400021A63354B02
:101980001B6B03F400037B607B68324B314A526C63
:1019900042F080625A642F4B5B6C03F080633B60C3
:1019A0003B682D4B2C4A926922F001029A612B4B25
:1019B00008225A61294B00229A61284B2522DA61BC
:1019C000264B03221A62254B40F243129A62234BA4
:1019D00040F215125A62214B40F21712DA621F4B85
:1019E00040F245121A630823BB60C023BB61052384
:1019F0003B624FF48033FB6207F10803184602F0A4
:101A000045FF164BF0221A66144B4FF4A0725A662B
:101A1000124B002283F83420104B002283F835202B
:101A20000E4B002283F836200C4B00225A600B4BE1
:101A300000229A60094B0022DA60084B00221A61EA
:101A4000064B054A1A600548FEF762FC3837BD466A
:101A500080BD00BF0038024000680140EC09002052
:101A600080B58EB000AF00237B60F023BB60002305
:101A7000FB604FF4A0733B6102237B614FF0504346
:101A8000BB62FF23BB610023FB61002387F8343076
:101A9000002387F83530002387F836304FF4C063D1
:101AA0003B6207237B62F023FB624FF4A0733B632E
:101AB0003B1D094819460022FEF710FDFF23BB61BC
:101AC000064BBB623B1D044819460122FEF706FD8A
:101AD0003837BD4680BD00BFEC090020005802D059
:101AE00080B582B000AF0346FB71094B4FF0005246
:101AF0009A61084B4FF480229A61FB790648194697
:101B0000FFF7AEFC034B04229A610837BD4680BD47
:101B1000000C0240000802400050014080B582B035
:101B200000AF0346FB71094B4FF400529A61084B1A
:101B30004FF480229A61FB7906481946FFF790FC22
:101B4000034B04229A610837BD4680BD000C024059
:101B5000000802400050014080B483B000AF7860BC
:101B600002E07B68013B7B607B68002BF9D10C377E
:101B7000BD465DF8047B704780B500AFA54B0422DD
:101B80009A61A548002101F0F3FCCA20FFF7A8FFE5
:101B9000C320FFF7C3FF0820FFF7C0FF5020FFF767
:101BA000BDFFCF20FFF79CFF0020FFF7B7FFC1204C
:101BB000FFF7B4FF3020FFF7B1FFED20FFF790FFF4
:101BC0006420FFF7ABFF0320FFF7A8FF1220FFF709
:101BD000A5FF8120FFF7A2FFE820FFF781FF852006
:101BE000FFF79CFF0020FFF799FF7820FFF796FF93
:101BF000CB20FFF775FF3920FFF790FF2C20FFF770
:101C00008DFF0020FFF78AFF3420FFF787FF0220B7
:101C1000FFF784FFF720FFF763FF2020FFF77EFF29
:101C2000EA20FFF75DFF0020FFF778FF0020FFF7B5
:101C300075FFB120FFF754FF0020FFF76FFF1B2057
:101C4000FFF76CFFB620FFF74BFF0A20FFF766FF98
:101C5000A220FFF763FFC020FFF742FF1020FFF72D
:101C60005DFFC120FFF73CFF1020FFF757FFC520A5
:101C7000FFF736FF4520FFF751FF1520FFF74EFF16
:101C8000C720FFF72DFF9020FFF748FF3620FFF712
:101C900027FFC820FFF742FFF220FFF721FF0020B7
:101CA000FFF73CFFB020FFF71BFFC220FFF736FF16
:101CB000B620FFF715FF0A20FFF730FFA720FFF738
:101CC0002DFF2720FFF72AFF0420FFF727FF2A20F8
:101CD000FFF706FF0020FFF721FF0020FFF71EFFA0
:101CE0000020FFF71BFFEF20FFF718FF2B20FFF767
:101CF000F7FE0020FFF712FF0020FFF70FFF012083
:101D0000FFF70CFF3F20FFF709FFF620FFF7E8FE83
:101D10000120FFF703FF0020FFF700FF0620FFF779
:101D2000FDFE2C20FFF7DCFE3C48FFF715FF2620C8
:101D3000FFF7D6FE0120FFF7F1FEE020FFF7D0FE0F
:101D40000F20FFF7EBFE2920FFF7E8FE2420FFF726
:101D5000E5FE0C20FFF7E2FE0E20FFF7DFFE092074
:101D6000FFF7DCFE4E20FFF7D9FE7820FFF7D6FE06
:101D70003C20FFF7D3FE0920FFF7D0FE1320FFF72A
:101D8000CDFE0520FFF7CAFE1720FFF7C7FE112082
:101D9000FFF7C4FE0020FFF7C1FEE120FFF7A0FE21
:101DA0000020FFF7BBFE1620FFF7B8FE1B20FFF751
:101DB000B5FE0420FFF7B2FE1120FFF7AFFE0720AB
:101DC000FFF7ACFE3120FFF7A9FE3320FFF7A6FE98
:101DD0004220FFF7A3FE0520FFF7A0FE0C20FFF72F
:101DE0009DFE0A20FFF79AFE2820FFF797FE2F207E
:101DF000FFF794FE0F20FFF791FE1120FFF770FE12
:101E00000648FFF7A9FE2920FFF76AFE2C20FFF7FE
:101E100067FE80BD000802400050014040420F00B4
:101E200080B582B002AF00230093012301933448B0
:101E30004FF400510122002304F076FD00230093AB
:101E4000012301932F4804210122002304F06CFD9B
:101E5000032300930E2301932B4841F658010022DF
:101E6000002304F07DFD032300930E2301932748F4
:101E70004FF470610022002304F072FD03230093ED
:101E800009230193214803210022002304F068FD67
:101E9000032300930E2301931A484FF49861002204
:101EA000002304F05DFD032300930E2301931448E7
:101EB00048210022002304F053FD032300930E2346
:101EC000019313484FF480610022002304F048FD81
:101ED000032300930E2301930E484FF40C6100225C
:101EE000002304F03DFD03230093092301930948D7
:101EF0004FF4A0510022002304F032FDBD4680BD06
:101F0000000C0240000802400000024000040240B1
:101F1000001402400018024080B582B000AF786023
:101F20007B68002B01D101233BE07B6893F83930BB
:101F3000DBB2002B06D17B68002283F8382078685A
:101F400000F034F87B68022283F839207B681B6834
:101F50007A681268D26822F40052DA60786800F079
:101F60002FF87B681B687A681268126922F4904225
:101F70001A617B681B687A681268526922F02A022B
:101F80005A617B681B687A681268D26842F4005212
:101F9000DA607B680022DA637B68012283F83920EB
:101FA000002318460837BD4680BD00BF80B483B00B
:101FB00000AF78600C37BD465DF8047B704700BF0A
:101FC000F0B585B000AF78600023FB607B681B68CC
:101FD0001B69FB60FB6823F44053FB607B68DB6894
:101FE000FA681343FB607B681B68FA681A617B68B8
:101FF0001B68DB68FB60FB6823F4164323F00C03CB
:10200000FB607B689A687B681B691A437B685B6925
:102010001A437B68DB691343FA681343FB607B68F0
:102020001B68FA68DA607B681B685B69FB60FB68A9
:1020300023F44073FB607B689B69FA681343FB6081
:102040007B681B68FA685A617B68DB69B3F5004FEF
:1020500040F08E807B681A688D4B9A4204D07B6872
:102060001A688C4B9A4241D17B681C6804F0EEFAE6
:10207000024613469B0013449A001A447B685B682F
:102080005B00B2FBF3F2844BA3FB02135B091D015F
:1020900004F0DCFA024613469B0013449A001A44EB
:1020A0007B685B685B00B2FBF3F604F0CFFA024694
:1020B00013469B0013449A001A447B685B685B00DC
:1020C000B2FBF3F2744BA3FB02135B09642202FB25
:1020D00003F3F31A1B0103F132026F4BA3FB02134C
:1020E0005B0903F00F032B43A360CEE07B681C6801
:1020F00004F084FA024613469B0013449A001A44E3
:102100007B685B685B00B2FBF3F2634BA3FB0213DB
:102110005B091D0104F072FA024613469B0013444A
:102120009A001A447B685B685B00B2FBF3F604F02C
:1021300065FA024613469B0013449A001A447B68D2
:102140005B685B00B2FBF3F2534BA3FB02135B092A
:10215000642202FB03F3F31A1B0103F132024E4B1C
:10216000A3FB02135B0903F00F032B43A3608CE076
:102170007B681A68464B9A4204D07B681A68454BC4
:102180009A4241D17B681C6804F060FA024613460B
:102190009B0013449A001A447B685B689B00B2FB67
:1021A000F3F23D4BA3FB02135B091D0104F04EFA51
:1021B000024613469B0013449A001A447B685B68EE
:1021C0009B00B2FBF3F604F041FA024613469B0073
:1021D00013449A001A447B685B689B00B2FBF3F2DD
:1021E0002D4BA3FB02135B09642202FB03F3F31ADA
:1021F0001B0103F13202284BA3FB02135B0903F01E
:102200000F032B43A36040E07B681C6804F0F6F9E1
:10221000024613469B0013449A001A447B685B688D
:102220009B00B2FBF3F21C4BA3FB02135B091D01E5
:1022300004F0E4F9024613469B0013449A001A4442
:102240007B685B689B00B2FBF3F604F0D7F90246AB
:1022500013469B0013449A001A447B685B689B00FA
:10226000B2FBF3F20C4BA3FB02135B09642202FBEB
:1022700003F3F31A1B0103F13202074BA3FB021312
:102280005B0903F00F032B43A3601437BD46F0BD79
:1022900000100140001401401F85EB5180B483B051
:1022A00000AF0346FB800C37BD465DF8047B7047EA
:1022B00080B500AF064B5B6903F00103002B05D02E
:1022C000034B01225A610120FFF7E8FF80BD00BFE8
:1022D000003C014080B500AF064B5B6903F0020390
:1022E000002B05D0034B02225A610220FFF7D6FFD4
:1022F00080BD00BF003C014080B500AF064B5B696C
:1023000003F00403002B05D0034B04225A61042080
:10231000FFF7C4FF80BD00BF003C014080B500AFA7
:10232000064B5B6903F00803002B05D0034B082222
:102330005A610820FFF7B2FF80BD00BF003C01409A
:1023400080B500AF064B5B6903F01003002B05D08E
:10235000034B10225A611020FFF7A0FF80BD00BF81
:10236000003C014080B500AF204B5B6903F02003C7
:10237000002B05D01D4B20225A612020FFF78EFF35
:102380001A4B5B6903F04003002B05D0174B40222A
:102390005A614020FFF782FF144B5B6903F0800312
:1023A000002B05D0114B80225A618020FFF776FF69
:1023B0000E4B5B6903F48073002B07D00B4B4FF47B
:1023C00080725A614FF48070FFF768FF074B5B69BA
:1023D00003F40073002B07D0044B4FF400725A61D2
:1023E0004FF40070FFF75AFF80BD00BF003C014072
:1023F00080B500AF2A4B5B6903F48063002B07D0E4
:10240000274B4FF480625A614FF48060FFF746FF1C
:10241000234B5B6903F40063002B07D0204B4FF480
:1024200000625A614FF40060FFF738FF1C4B5B6994
:1024300003F48053002B07D0194B4FF480525A619C
:102440004FF48050FFF72AFF154B5B6903F40053EC
:10245000002B07D0124B4FF400525A614FF400503A
:10246000FFF71CFF0E4B5B6903F48043002B07D082
:102470000B4B4FF480425A614FF48040FFF70EFF40
:10248000074B5B6903F40043002B07D0044B4FF468
:1024900000425A614FF40040FFF700FF80BD00BFCB
:1024A000003C014080B584B000AF78600023FB6041
:1024B0007B68002B01D101234DE07B6893F8393014
:1024C000DBB2002B06D17B68002283F838207868C5
:1024D00000F046F87B68022283F839207B681B688D
:1024E0001B68FB60FB6823F44033FB607B685B6820
:1024F000FA681343FB607B681B68FA681A607B68A4
:102500001B685B6BFB60FB6823F00703FB607B6869
:102510009B68FA681343FB607B681B68FA685A6320
:102520007B681B681B6CFB60FB6823F47F5323F004
:102530003F03FB607B68DB68FA681343FB607B68E2
:102540001B68FA681A647B680022DA637B680122E0
:1025500083F83920002318461037BD4680BD00BFE0
:1025600080B483B000AF78600C37BD465DF8047B63
:10257000704700BF80B586B002AFF860B9607A607E
:102580003B60FB6893F83830012B01D1022320E037
:10259000FB68012283F83820FB68022283F8392087
:1025A000FB681B68FA681268126822F001021A6060
:1025B000BB690093F868B9687A683B6800F09CF9D9
:1025C000FB681B68FA681268126842F001021A6020
:1025D000002318461037BD4680BD00BF80B586B0C9
:1025E00000AF7860396000237B617B681B681B68E3
:1025F00003F00103002B4DD002F03CF9786142E07A
:102600007B681B685B6803F020033B617B681B6889
:102610005B6803F00103FB603B69002B02D1FB68A0
:10262000002B11D07B681B6820229A607B681B6896
:1026300001229A607B68042283F839207B6800229B
:1026400083F83820012374E03B68B3F1FF3F1AD0D0
:102650003B68002B07D002F00DF902467B69D21AC5
:102660003B689A420FD97B68002283F838207B6848
:10267000DB6B43F020027B68DA637B68032283F81C
:102680003920032355E07B681B685B6803F0020375
:10269000002BB5D07B681B68DB6903F02003002B9F
:1026A00036D002F0E7F878612BE07B681B685B6846
:1026B00003F00803002B09D07B681B6808229A608E
:1026C0007B68042283F83920012332E03B68B3F1B0
:1026D000FF3F16D03B68002B07D002F0CBF8024634
:1026E0007B69D21A3B689A420BD97B68DB6B43F05B
:1026F00020027B68DA637B68032283F83920032396
:1027000017E07B681B685B6803F01003002BCCD0DC
:102710007B681B6802229A607B681B6810229A60A3
:102720007B68012283F839207B68002283F83820F7
:10273000002318461837BD4680BD00BF80B485B061
:1027400000AF786039603B681B0118337A68134426
:10275000BB600023FB607B6893F83830012B01D10C
:102760000223C0E07B68012283F838207B680222C4
:1027700083F839207B685B68B3F5403F3B68002BEA
:1027800054D17B681B685B6AFB60FA68594B134045
:10279000FB60BB685B680A2B03D0BB685B68092BD6
:1027A0000ED1BB685A68BB689B681B041A43BB68A0
:1027B000DB6803F07F431343FA681343FB600CE0CC
:1027C000BB685A68BB689B681B041A43BB68DB681C
:1027D0001B061343FA681343FB607B681B68FA68A7
:1027E0005A627B681B689B69FB60FB6823F47F531C
:1027F00023F03F03FB60BB681B68FA681343FB6070
:102800007B681B68FA689A61BB685B680A2B03D017
:10281000BB685B68092B5DD1BB68DB6823F07F4335
:10282000FB607B681B68FA689A6253E07B681B68F0
:10283000DB69FB60FA682F4B1340FB60BB685B6889
:102840000A2B03D0BB685B68092B0ED1BB685A68A2
:10285000BB689B681B041A43BB68DB6803F07F43BB
:102860001343FA681343FB600CE0BB685A68BB680B
:102870009B681B041A43BB68DB681B061343FA689A
:102880001343FB607B681B68FA68DA617B681B682E
:102890001B69FB60FB6823F47F5323F03F03FB605D
:1028A000BB681B68FA681343FB607B681B68FA68A7
:1028B0001A61BB685B680A2B03D0BB685B68092B95
:1028C00008D1BB68DB6823F07F43FB607B681B6833
:1028D000FA681A627B68012283F839207B6800223B
:1028E00083F83820002318461437BD465DF8047B72
:1028F000704700BFF0FFFC0080B48BB000AFF86001
:10290000B9607A603B6000237B6200233B62002356
:10291000FB610023BB6100237B613B681B047B627E
:10292000FB681B68396B7A6A0A435A64FB681B6848
:102930007A68DA63FB685B68B3F5403F74D1BB68C3
:1029400003F07F433B62BB6803F47F03FB61BB681A
:1029500003F47F43BB61BB68DBB27B61FB689B68B0
:10296000002B08D1BA69FB691A433B6A1A437B6999
:1029700013437B6253E0FB689B68012B06D1BA6965
:10298000FB691A437B6913437B6248E0FB689B68E1
:10299000022B11D1FB69DB0CFB61BB699B0ABB619C
:1029A0007B69DB087B61BB695A01FB69DB021A4367
:1029B0007B6913437B6232E0FB689B68032B17D172
:1029C0003B6ADB0F3B62FB69DB0CFB61BB69DB0A2B
:1029D000BB617B69DB087B61BB695A01FB699B02B8
:1029E0001A433B6ADB031A437B6913437B6216E09D
:1029F0003B6A1B0F3B62FB691B0DFB61BB691B0B39
:102A0000BB617B691B097B61BB691A01FB691B0206
:102A10001A433B6A1B031A437B6913437B62FB68BF
:102A20001B687A6A9A6303E0FB681B68BA68DA601D
:102A30002C37BD465DF8047B704700BF80B582B07F
:102A400002AF002300930323019306484FF4C041D3
:102A50000122002303F068FF024B4FF0C0429A614D
:102A6000BD4680BD0018024080B582B002AF02238F
:102A7000009300230193044801210022002303F066
:102A800053FFBD4680BD00BF0000024080B586B048
:102A900002AF04F0D5F906F0D7F90023FB6002E09D
:102AA000FB680133FB60FA6842F20F739A42F7DD6C
:102AB00001F016FEFFF7D8FFFFF7C0FF01F038F86E
:102AC0003C48FDF79DFB00230093032301933A4804
:102AD0004FF443410122002303F026FF4FF48063AB
:102AE0000093364836494FF48062364B05F042F980
:102AF000FDF7C2FF344806F07BF800F075F80023BC
:102B0000FB600023BB600023FB710023BB71FDF75A
:102B1000D5FFFB6803F00F03002B10D1BB68013316
:102B2000BB60BA68294B1340002B05DA013B6FEA02
:102B300083536FEA93530133BB6005F017FE244BB8
:102B40001B6903F00103002B06D00123BB71214B4D
:102B50004FF4C0429A61DAE7BB79012B24D1FB79AB
:102B60000133FB71FA791C4BA3FB021359080B4686
:102B70005B000B44D31AFB711848194901F0C2F8E5
:102B8000FB79012B07D0022B09D0002B0AD10220A0
:102B900005F052F906E0002005F04EF902E00120B0
:102BA00005F04AF90023BB710A4B4FF0C0429A610D
:102BB000ADE700BFDC12002000080240900E0020AC
:102BC000EC120020EC220020ACBD0008FF030080C6
:102BD0000000024000180240ABAAAAAA0048004028
:102BE000BCBD00080000000080B586B004AF002323
:102BF0007B6033E0786808F055F80346184607F024
:102C000031FC02460B461046194625A3D3E90023A2
:102C100007F07CFC02460B46104619464FF00002B6
:102C2000214B07F09DFD02460B461046194606F063
:102C30006FF902460B461046194607F029FF014678
:102C40001A4B7A6843F822107B68A3F50071184B81
:102C50007A6843F822107B6801337B607B68B3F5A8
:102C6000806FC7DB4FF48063009300230193114B07
:102C7000029300200D490022012305F0F1F84FF4E2
:102C800080630093012301930B4B029301200849B9
:102C900002224FF4007305F0E3F80837BD4680BD0B
:102CA0001F85EB51B81E194000009040EC12002027
:102CB000EC220020CCBD0008DCBD0008AFF3008092
:102CC00080B58AB000AF786000237B6200233B624E
:102CD0000023FB617B681B6A012B00F0A0807B68EE
:102CE00093F83D30DBB2222B49D17B681B689B688F
:102CF00003F00103002B0CBF00230123DBB27B6236
:102D00007B681B685B6803F04003002B0CBF00234B
:102D10000123DBB23B627B6A002B05D03B6A002BB0
:102D200002D0786804F024F97B681B689B6803F084
:102D30004003002B0CBF00230123DBB27B627B68C6
:102D40001B685B6803F02003002B0CBF00230123EA
:102D5000DBB23B627B6A002B11D03B6A002B0ED0AA
:102D60007B681B68DB68BB617B681B689B68BB6119
:102D7000BB697B681B6C43F002027B681A647B684A
:102D800093F83D30DBB2122B40F0F6817B681B6874
:102D90009B6803F00203002B0CBF00230123DBB26E
:102DA0007B627B681B685B6803F08003002B0CBFB1
:102DB00000230123DBB23B627B6A002B05D03B6A18
:102DC000002B02D0786804F089F87B681B689B6848
:102DD00003F00803002B0CBF00230123DBB27B624E
:102DE0007B681B685B6803F02003002B0CBF00238B
:102DF0000123DBB23B627B6A002B00F0BD813B6AA2
:102E0000002B00F0B9817B681B689B687B617B6944
:102E10007B681B6C43F001027B681A64ACE17B6841
:102E20001B68DB6903F440737B627B681B68DB69AA
:102E300003F440733B627B6AB3F5007F03D03B6AC7
:102E4000002B40F0CE807B681A68984B9A4201D1E3
:102E5000974B01E04FF040239B6803F001037B6236
:102E60007B681A68914B9A4201D1914B01E04FF077
:102E700040235B6803F040033B627B6A012B18D15F
:102E80003B6A402B15D17B681B68DB6903F44073F8
:102E90007B627B681B68DB6903F440733B627B6A7F
:102EA000B3F5007F02D03B6A002B02D1786800F0B6
:102EB00075F97B681A687D4B9A4201D17C4B01E021
:102EC0004FF040239B6803F040037B627B681A68E5
:102ED000764B9A4201D1764B01E04FF040235B687C
:102EE00003F020033B627B6A402B1FD13B6A202BFF
:102EF0001CD17B681A686D4B9A4201D16C4B01E082
:102F00004FF04023DB68FB617B681A68674B9A428D
:102F100001D1674B01E04FF040239B68FB617B6868
:102F20001B6C43F008027B681A64FB697B681B68B2
:102F30009B6803F00203002B0CBF00230123DBB2CC
:102F40007B627B681B685B6803F08003002B0CBF0F
:102F500000230123DBB23B627B6A002B18D03B6A63
:102F6000002B15D07B681B68DB6903F440737B6220
:102F70007B681B68DB6903F440733B627B6AB3F5D3
:102F8000007F02D03B6A002B02D1786800F006F97E
:102F90007B681B689B6803F00803002B0CBF0023B1
:102FA0000123DBB27B627B681B685B6803F0200354
:102FB000002B0CBF00230123DBB23B627B6A002B9A
:102FC0000ED03B6A002B0BD07B681B689B683B6173
:102FD0003B697B681B6C43F001027B681A64CBE0A1
:102FE000CAE07B681B689B6803F00103002B0CBFE1
:102FF00000230123DBB27B627B681B685B6803F004
:103000004003002B0CBF00230123DBB23B627B6A31
:10301000002B19D03B6A002B16D07B681B68DB693C
:1030200003F440737B627B681B68DB6903F44073C5
:103030003B627B6AB3F5407F03D03B6AB3F5807F88
:1030400002D1786800F0AAF87B681B689B6803F0DF
:103050004003002B0CBF00230123DBB27B627B68A3
:103060001B685B6803F02003002B0CBF00230123C7
:10307000DBB23B627B6A002B11D03B6A002B0ED087
:103080007B681B68DB68FB607B681B689B68FB6078
:10309000FB687B681B6C43F002027B681A647B68E8
:1030A0001A68024B9A4205D1014B05E000380040F6
:1030B000003400404FF040239B6803F002037B6222
:1030C0007B681A68334B9A4201D1334B01E04FF0D1
:1030D00040235B6803F080033B627B6A022B19D1BB
:1030E0003B6A802B16D17B681B68DB6903F4407355
:1030F0007B627B681B68DB6903F440733B627B6A1D
:10310000B3F5407F03D03B6AB3F5807F02D1786886
:1031100000F044F87B681A681E4B9A4201D11E4B9E
:1031200001E04FF040239B6803F008037B627B685B
:103130001A68184B9A4201D1174B01E04FF0402317
:103140005B6803F020033B627B6A082B14D13B6A67
:10315000202B11D17B681A680E4B9A4201D10E4B7D
:1031600001E04FF040239B68FB617B681B6C43F0E0
:1031700004027B681A64FB697B681B6C002B06D019
:103180007B68012283F83D20786800F09BF928379E
:10319000BD4680BD003800400034004080B584B09A
:1031A00000AF78600023FB600023BB607B6893F86E
:1031B0003D30DBB2322B40F03B817B6893F83C30F2
:1031C000DBB2012B01D1022333E17B68012283F8BA
:1031D0003C207B681B68DB6903F44073FB607B6801
:1031E0001B68DB6903F44073BB60FB68B3F5007FC9
:1031F00002D0BB68002B70D17B685B8D9BB2002B2B
:1032000023D07B681B689B6803F00203002B1CD053
:103210007B681A687B685B6A981C796848621B88BF
:10322000D3607B685B8D9BB2013B9AB27B685A8509
:103230007B685B8D9BB2002B07D17B681B687A682B
:103240001268526822F080025A607B685B8E9BB2E3
:10325000002B41D07B681A68784B9A4201D1784B99
:1032600001E04FF040239B6803F00103002B33D0B3
:103270007B68DB6A991C7A68D1627A6811686F4A48
:10328000914201D16E4A01E04FF04022D26892B2E1
:103290001A807B685B8E9BB2013B9AB27B685A8630
:1032A0007B685B8E9BB2002B16D17B681A68634BE0
:1032B0009A4201D1624B01E04FF040237A681168D5
:1032C0005E4A914201D15E4A01E04FF040225268CD
:1032D00022F040025A6075E074E07B685B8D9BB21F
:1032E000002B42D07B681A68544B9A4201D1544B50
:1032F00001E04FF040239B6803F00203002B34D021
:103300007B681A684D4B9A4201D14D4B01E04FF05A
:1033100040237A68526A901C796848621288DA60A1
:103320007B685B8D9BB2013B9AB27B685A857B6858
:103330005B8D9BB2002B18D17B681A683F4B9A4279
:1033400001D13F4B01E04FF040237A6811683B4ABE
:10335000914201D13A4A01E04FF04022526822F0F6
:1033600080025A60786800F095F87B685B8E9BB2AB
:10337000002B27D07B681B689B6803F00103002BA0
:1033800020D07B68DB6A991C7A68D1627A681268FF
:10339000D26892B21A807B685B8E9BB2013B9AB274
:1033A0007B685A867B685B8E9BB2002B0AD17B6858
:1033B0001B687A681268526822F040025A60786886
:1033C00000F074F87B685B8E9BB2FB607B685B8D62
:1033D0009BB2BB60FB68002B24D1BB68002B21D1C2
:1033E0007B681B687A681268526822F020025A6073
:1033F0007B681A68114B9A4201D1114B01E04FF0E2
:1034000040237A6811680D4A914201D10C4A01E0CB
:103410004FF04022526822F020025A607B6801225D
:1034200083F83D207B68002283F83C20002300E0E5
:10343000022318461037BD4680BD00BF003800404B
:103440000034004080B500AF01F08EF903F0D4FCE9
:1034500080BD00BF80B500AF014804F01FFB80BDF8
:10346000B00D002080B500AF014804F017FB80BD0F
:10347000000D002080B500AF014804F00FFB80BDB7
:10348000580D002080B500AF014804F007FB80BD57
:10349000500C002080B485B000AF78600023FB6042
:1034A0001437BD465DF8047B704700BF80B485B01B
:1034B00000AF78600023FB601437BD465DF8047BE5
:1034C000704700BF80B586B000AF78607B681B682E
:1034D0009B687B617B6903F04003002B08D01E4B87
:1034E0001B68DB683B611C4B1B689B683B613B694D
:1034F0007B6903F00803002B04D0174B1B689B6803
:10350000FB60FB687B6903F48073002B21D0124BB6
:103510001B68114A1268D26922F48062DA6100BF26
:103520000E484FF4805104F0EFF80346002BF7D11A
:1035300000BF0A484FF4805104F0E6F80346012B1F
:10354000F7D1054B1B68044A1268D26942F48062C5
:10355000DA611837BD4680BD080E00200004024025
:1035600080B500AF0148FFF7ABFB80BD080E00201F
:1035700080B584B002AF78600B46FB707A68314B3F
:103580009A420BD1FB784FF4827200920022019292
:103590002C4819460022202300F06CF87A682A4B48
:1035A0009A420BD1FB784FF4827200920022019272
:1035B000254819460022202300F05CF87A68234B46
:1035C0009A420BD1FB784FF4827200920022019252
:1035D0001E4819460022202300F04CF87A681C4B44
:1035E0009A420BD1FB784FF4827200920022019232
:1035F000174819460022202300F03CF87A68154B42
:103600009A420BD1FB784FF4827200920022019211
:10361000104819460022202300F02CF87A680E4B3F
:103620009A420BD1FB784FF48272009200220192F1
:10363000094819460022202300F01CF80837BD462F
:1036400080BD00BF0030014000380040003C004019
:1036500000340140005001400054014080B483B068
:1036600000AF78600B467B800C37BD465DF8047B6D
:10367000704700BF80B59EB000AF7860F970BA7037
:103680003B807B683B627A68644B9A4211D1644B01
:10369000634A526C42F480525A64614B5B6C03F48F
:1036A0008053FB61FB69FB78184600F0C5F80023E6
:1036B000FB627A685B4B9A4211D1594B584A126CA3
:1036C00042F480421A64564B1B6C03F48043BB6186
:1036D000BB69FB78184600F0DFF80023FB627A68CC
:1036E000514B9A4211D14E4B4D4A126C42F400425A
:1036F0001A644B4B1B6C03F400437B617B69FB78C2
:10370000184600F02BF90023FB627A68474B9A4277
:1037100011D1434B424A526C42F400525A64404B1E
:103720005B6C03F400533B613B69FB78184600F087
:1037300045F90023FB627A683D4B9A4211D1384B20
:10374000374A526C42F480125A64354B5B6C03F476
:103750008013FB60FB68FB78184600F05DF90023DE
:10376000FB627A68334B9A4211D12D4B2C4A526C32
:1037700042F400125A642A4B5B6C03F40013BB60E2
:10378000BB68FB78184600F083F90023FB623B8896
:10379000FB63B7F884303B64B7F880307B6200236A
:1037A000BB640723FB6400237B644FF40073BB639B
:1037B0000023BB62BB78002B04D100233B630023B2
:1037C0007B6316E0BB78012B04D100233B6301230C
:1037D0007B630EE0BB78022B04D102233B63002302
:1037E0007B6306E0BB78032B03D102233B630123F9
:1037F0007B633B6A3A6A126822F040021A6007F162
:1038000020031846FCF714FD3B6A3A6A126842F03E
:1038100040021A607837BD4680BD00BF00300140CD
:103820000038024000380040003C004000340140B5
:10383000005001400054014080B584B002AF0346FF
:10384000FB71FB79002B09D103230093052301931E
:103850000E48E0210022002303F082F8FB79012BBF
:1038600009D103230093052301930948382100223D
:10387000002303F075F8FB79042B03D105480521DB
:10388000FFF7ECFE0837BD4680BD00BF00000240D8
:10389000000402400030014080B584B002AF03460E
:1038A000FB71FB79002B14D10323009305230193B3
:1038B00026484FF480610022002303F051F80323CF
:1038C00000930523019322480C210022002303F0DA
:1038D00047F8FB79012B0AD10323009305230193B9
:1038E0001A484FF460410022002303F039F8FB79B5
:1038F000022B09D1032300930523019315480D21C1
:103900000022002303F02CF8FB79032B14D10323AE
:103910000093052301930D484FF4404100220023FA
:1039200003F01EF8032300930523019309480221A5
:103930000022002303F014F8FB79042B03D106487E
:103940000521FFF78BFE0837BD4680BD000402400D
:1039500000080240002002400038004080B584B0DA
:1039600002AF0346FB71FB79002B09D103230093BF
:10397000052301930E4838210022002302F0F0FFB6
:10398000FB79012B0AD103230093052301930948F6
:103990004FF4E0510022002302F0E2FFFB79042BF8
:1039A00003D105480521FFF759FE0837BD4680BD04
:1039B0000004024000080240003C004080B584B092
:1039C00002AF0346FB71FB79002B09D1032300935F
:1039D000052301930E4864210022002302F0C0FF5A
:1039E000FB79012B0AD10323009305230193084897
:1039F0004FF4E0410022002302F0B2FFFB79042BD8
:103A000003D104480521FFF729FE0837BD4680BDD4
:103A1000001002400034014080B584B002AF03467C
:103A2000FB71FB79002B0AD103230093052301933B
:103A300014484FF460710022002302F091FFFB79DB
:103A4000012B14D103230093052301930D484FF458
:103A500000610022002302F083FF0323009305236B
:103A600001930948C0210022002302F079FFFB796D
:103A7000042B03D105480521FFF7F0FD0837BD46AB
:103A800080BD00BF00140240001C024000500140F5
:103A900080B584B002AF0346FB71FB79002B0AD1DD
:103AA000032300930523019308484FF4E0410022CB
:103AB000002302F055FFFB79042B03D104480521B4
:103AC000FFF7CCFD0837BD4680BD00BF001802409F
:103AD00000540140DFF83CD0002100F004B80E4B48
:103AE0005B58435004310D480D4B42189A42FFF485
:103AF000F6AF0C4A00F003B8002342F8043B0A4B2F
:103B00009A42FFF4F9AF03F09BF907F025FCFEF7AA
:103B1000BDFF70470000032050E8000800000020AF
:103B20003C0900203C090020583B0020FFF7FEBF65
:103B300080B483B000AF0B4B0A4A526B42F0400294
:103B40005A63084B5B6B03F040037B607B68064B5A
:103B5000054A126842F004021A600C37BD465DF84F
:103B6000047B7047003802400008065080B588B0DA
:103B700004AFF8600B467A60FB72FA684C4B9A42CD
:103B80000ED1FB7A0C2200920022019200220292B6
:103B900000220392464819467A68002300F0F0FBA1
:103BA000FA68444B9A420ED1FB7A0C220092002212
:103BB000019200220292002203923E4819467A683E
:103BC000002300F0DDFBFA683B4B9A420ED1FB7AF2
:103BD0000C22009200220192002202920022039203
:103BE000354819467A68002300F0CAFBFA68334B5F
:103BF0009A420ED1FB7A0C220092002201920022FE
:103C00000292002203922D4819467A68002300F0A0
:103C1000B7FBFA682A4B9A420ED1FB7A0C2200922B
:103C200000220192002202920022039224481946A7
:103C30007A68002300F0A4FBFA68224B9A420ED166
:103C4000FB7A0C22009200220192002202920022B2
:103C500003921C4819467A68002300F091FBFA6829
:103C6000194B9A420ED1FB7A0C220092002201924B
:103C70000022029200220392134819467A68002318
:103C800000F07EFBFA68114B9A420ED1FB7A0C22AF
:103C900000920022019200220292002203920B481D
:103CA00019467A68002300F06BFB1037BD4680BDD3
:103CB000001001400044004000480040004C00401B
:103CC000005000400014014000780040007C00409B
:103CD00080B584B000AF7860786800F069F802467B
:103CE00007F10F0310461946012202F049FD034671
:103CF000002B01D0FB7B00E0002318461037BD46A7
:103D000080BD00BF80B483B000AF7860396014E03C
:103D100000BF7B681B6803F08003002BF9D03B6871
:103D20005A1C3A601B781A467B685A6000BF7B6851
:103D30001B6803F08003002BF9D03B681B78002B35
:103D4000E6D10C37BD465DF8047B704780B582B084
:103D500000AF7860786800F02BF80346184602F050
:103D6000B3FD0346002B14BF00230123DBB218462A
:103D70000837BD4680BD00BF80B483B000AF786017
:103D80000B467B800C37BD465DF8047B704700BF57
:103D900080B582B000AF78600B46FB70FB1C786882
:103DA0001946012202F07AFC0837BD4680BD00BFEB
:103DB00080B485B000AF78607A681B4B9A4201D11D
:103DC0001A4BFB607A681A4B9A4201D1194BFB607F
:103DD0007A68194B9A4201D1184BFB607A68184BEC
:103DE0009A4201D1174BFB607A68174B9A4201D176
:103DF000164BFB607A68164B9A4201D1154BFB605B
:103E00007A68154B9A4201D1144BFB607A68144BC7
:103E10009A4201D1134BFB60FB6818461437BD462C
:103E20005DF8047B704700BF0010014000000020D7
:103E300000440040180000200048004030000020EE
:103E4000004C00404800002000500040600000206E
:103E5000001401407800002000780040900000200D
:103E6000007C0040A800002080B485B000AF7860DE
:103E70007A681B4B9A4201D10023FB737A68194B75
:103E80009A4201D10123FB737A68174B9A4201D100
:103E90000223FB737A68154B9A4201D10423FB730A
:103EA0007A68134B9A4201D10523FB737A68114B50
:103EB0009A4201D10623FB737A680F4B9A4201D1D3
:103EC0000723FB737A680D4B9A4201D10823FB73D9
:103ED000FB7B18461437BD465DF8047B704700BF76
:103EE000001001400044004000480040004C0040E9
:103EF000005000400014014000780040007C004069
:103F000080B584B002AF0346FB71FB79002B0AD168
:103F100003230093072301930E484FF4C06100224E
:103F2000012302F01DFDFB79012B09D1032300932E
:103F3000072301930848C0210022012302F010FD4D
:103F4000FB79032B03D105480721FFF715FF08373D
:103F5000BD4680BD00000240000402400010014048
:103F600080B584B002AF0346FB71FB79002B09D109
:103F700003230093072301930E480C210022012301
:103F800002F0EEFCFB79012B09D1032300930723F8
:103F90000193094860210022012302F0E1FCFB7932
:103FA000032B03D105480721FFF7E6FE0837BD467E
:103FB00080BD00BF00000240000C024000440040F1
:103FC00080B584B002AF0346FB71FB79002B0AD1A8
:103FD000032300930723019316484FF44061002206
:103FE000012302F0BDFCFB79012B0AD103230093CE
:103FF0000723019310484FF440610022012302F08F
:10400000AFFCFB79022B0AD1032300930723019312
:104010000A484FF440710022012302F0A1FCFB7911
:10402000032B03D106480721FFF7A6FE0837BD463C
:1040300080BD00BF0004024000080240000C0240A6
:104040000048004080B584B002AF0346FB71FB79A5
:10405000002B09D103230093082301930E48032169
:104060000022012302F07CFCFB79012B0AD10323FF
:1040700000930823019309484FF440610022012373
:1040800002F06EFCFB79032B03D105480821FFF7F2
:1040900073FE0837BD4680BD0000024000080240A4
:1040A000004C004080B584B002AF0346FB71FB7941
:1040B000002B14D103230093082301930D484FF4E0
:1040C00080510022012302F04BFC032300930823BC
:1040D0000193094804210022012302F041FCFB79ED
:1040E000032B03D105480821FFF746FE0837BD46DC
:1040F00080BD00BF00080240000C0240005000409C
:1041000080B584B002AF0346FB71FB79002B09D167
:1041100003230093082301930E48C02100220123AA
:1041200002F01EFCFB79012B0AD103230093082324
:10413000019309484FF484410022012302F010FC4E
:10414000FB79032B03D105480821FFF715FE08373B
:10415000BD4680BD00080240001802400014014026
:1041600080B584B002AF0346FB71FB79002B0AD106
:1041700003230093082301930E484FF4C0710022DB
:10418000012302F0EDFBFB79012B09D103230093FE
:10419000082301930848C0210022012302F0E0FB1C
:1041A000FB79032B03D105480821FFF7E5FD08370C
:1041B000BD4680BD0010024000140240007800405F
:1041C00080B584B002AF0346FB71FB79002B09D1A7
:1041D00003230093082301930748032100220123AE
:1041E00002F0BEFBFB79032B03D104480821FFF743
:1041F000C3FD0837BD4680BD00100240007C004072
:1042000080B500AF084B1B6803F02003002B06D0DD
:10421000054B5B68DBB205481946FFF7B9FD02485C
:10422000252100F01DFA80BD001001400000002093
:1042300080B500AF084B1B6803F02003002B06D0AD
:10424000054B5B68DBB205481946FFF7A1FD024844
:10425000262100F005FA80BD00440040180000202F
:1042600080B500AF084B1B6803F02003002B06D07D
:10427000054B5B68DBB205481946FFF789FD02482C
:10428000272100F0EDF980BD0048004030000020FB
:1042900080B500AF084B1B6803F02003002B06D04D
:1042A000054B5B68DBB205481946FFF771FD024814
:1042B000342100F0D5F980BD004C004048000020BA
:1042C00080B500AF084B1B6803F02003002B06D01D
:1042D000054B5B68DBB205481946FFF759FD0248FC
:1042E000352100F0BDF980BD005000406000002085
:1042F00080B500AF084B1B6803F02003002B06D0ED
:10430000054B5B68DBB205481946FFF741FD0248E3
:10431000472100F0A5F980BD00140140780000207D
:1043200080B500AF084B1B6803F02003002B06D0BC
:10433000054B5B68DBB205481946FFF729FD0248CB
:10434000522100F08DF980BD0078004090000020DF
:1043500080B500AF084B1B6803F02003002B06D08C
:10436000054B5B68DBB205481946FFF711FD0248B3
:10437000532100F075F980BD007C0040A8000020AA
:1043800080B59EB000AFF8607A600A46FA723B8151
:10439000FA688C4B9A421ED18B4B8B4A526C42F07E
:1043A00010025A64884B5B6C03F010033B633B6B59
:1043B000854B854A526A42F010025A62824B824A09
:1043C000526A22F010025A62FB7A1846FFF798FDF3
:1043D000252387F87730FA687C4B9A421ED17A4BB6
:1043E000794A126C42F400321A64774B1B6C03F466
:1043F0000033FB62FB6A744B734A126A42F4003268
:104400001A62714B704A126A22F400321A62FB7A05
:104410001846FFF7A5FD262387F87730FA686C4B1E
:104420009A421ED1684B684A126C42F480221A6488
:10443000654B1B6C03F48023BB62BB6A624B624A10
:10444000126A42F480221A625F4B5F4A126A22F4B7
:1044500080221A62FB7A1846FFF7B2FD272387F8FD
:104460007730FA685B4B9A421ED1574B564A126C12
:1044700042F400221A64544B1B6C03F400237B6249
:104480007B6A514B504A126A42F400221A624E4B28
:104490004D4A126A22F400221A62FB7A1846FFF78C
:1044A000D1FD342387F87730FA684B4B9A421ED1FE
:1044B000454B454A126C42F480121A64424B1B6C05
:1044C00003F480133B623B6A3F4B3F4A126A42F45B
:1044D00080121A623C4B3C4A126A22F480121A6221
:1044E000FB7A1846FFF7DEFD352387F87730FA6848
:1044F0003A4B9A421ED1344B334A526C42F020025E
:104500005A64314B5B6C03F02003FB61FB692E4B5B
:104510002D4A526A42F020025A622B4B2A4A526AB2
:1045200022F020025A62FB7A1846FFF7E9FD472382
:1045300087F87730FA682A4B9A421ED1224B224ADA
:10454000126C42F080421A641F4B1B6C03F08043D4
:10455000BB61BB691C4B1C4A126A42F080421A6262
:10456000194B194A126A22F080421A62FB7A1846E5
:10457000FFF7F6FD522387F87730FA68194B9A4215
:1045800032D1114B104A126C42F000421A640E4BA9
:104590001B6C03F000437B617B690B4B0A4A126A78
:1045A00042F000421A62084B074A126A22F00042A7
:1045B0001A62FB7A1846FFF703FE532387F8773019
:1045C00012E000BF001001400038024000440040EB
:1045D00000480040004C00400050004000140140E2
:1045E00000780040007C0040FB687B637B68BB6315
:1045F0003B89FB64D7F88030BB64D7F884307B6498
:10460000D7F888303B64D7F88C30FB6300233B65D8
:1046100097F97730184602F0C7FBF868FFF724FCDB
:10462000034697F97720104606211A4602F092FBBE
:1046300097F97730184602F0A9FB97F977301846BA
:1046400002F0CCFB07F134031846FDF765FCFB686C
:10465000DB6843F02002FB68DA607837BD4680BD36
:1046600080B588B000AF78600B46FB701B4B7A6852
:104670001A601A4B1B681B68FB61184B1B685B6850
:10468000FB61FB69154B1B681B68BB61134B1B6807
:104690005B68BB61BB69114B1B681B687B610F4B7F
:1046A0001B685B687B617B690C4B1B681B683B610B
:1046B0000A4B1B685B683B613B69084B1B681B68C6
:1046C000FB60064B1B685B68FB60FB6897F9033077
:1046D000184602F083FB2037BD4680BDC40A002087
:1046E00080B500AF0E4B0E4A126842F400721A6099
:1046F0000B4B0B4A126842F480621A60084B084A5E
:10470000126842F480721A60032002F019FB0F2035
:1047100000F008F8FCF7EEF80023184680BD00BF53
:10472000003C024080B582B000AF786001F03AFFF3
:104730000246094BA3FB02139B09184602F042FBF9
:104740004FF0FF307968002202F004FB0023184686
:104750000837BD4680BD00BFD34D621080B400AFA6
:10476000BD465DF8047B704780B582B000AF3E4B1C
:104770001B685A1C3C4B1A603C4B1B68002B04D036
:104780003A4B1B685A1E394B1A600023FB7160E0DC
:10479000FB79374A9B0013445B68002B56D0FB79AA
:1047A000334A9B0013445B681B78C3F34003DBB2BE
:1047B000002B4BD0FB792E4A9B0013445B689B680F
:1047C000002B07D0FB792A4A9B0013445B689A6848
:1047D000013A9A60FB79264A9B0013445B689B6808
:1047E000002B33D1FB79224A9B0013445B68DA68C3
:1047F000FB791F499B000B445968FB791C489B00BF
:1048000003445B681B69084619469047FB79184AC0
:104810009B0013445A68FB7915499B000B445B6865
:104820005B689360FB79124A9B0013445B681B78BA
:10483000C3F30003DBB2002B08D1FB790C4A9B00C9
:1048400013445A6813786FF341031370FB790133F3
:10485000FB71074B1B78FA799A4299D3FFF77EFFD9
:104860000837BD4680BD00BF080B0020040B0020A8
:104870000C0B002080B400AF034B1B681846BD46EC
:104880005DF8047B704700BF080B002080B5B2B014
:1048900000AF78600023C7F8C4300023C7F8C030E9
:1048A0007B681B6803F00103002B06D17B681B6843
:1048B00003F00203002B00F0AF80674B00221A6068
:1048C000FFF7D8FFC7F8C40009E0FFF7D3FF02469F
:1048D000D7F8C430D31A642B01D9032352E25F4BBB
:1048E0001B6803F00063002BEFD17B681B6803F0AB
:1048F0000103002B38D0594B7A68516847F6C072D3
:10490000C7F8BC20D7F8BC2092FAA2F2C7F8B820AA
:10491000D7F8B820C7F8B420D7F8B420B2FA82F29A
:10492000C7F8B020D7F8B020D2B291407A6890682A
:104930004FF0E042C7F8AC20D7F8AC2092FAA2F2D0
:10494000C7F8A820D7F8A820C7F8A420D7F8A42033
:10495000B2FA82F2C7F8A020D7F8A020D2B200FAAB
:1049600002F20A43C3F884207B681B6803F0020349
:10497000002B39D0394BD3F8843003F0E0424FF0AC
:10498000E043C7F89C30D7F89C3093FAA3F3C7F8FC
:104990009830D7F89830C7F89430D7F89430B3FAF5
:1049A00083F3C7F89030D7F89030DBB222FA03F3E4
:1049B000C7F8C030294B7A68526891017A68D2688A
:1049C00012061143D7F8C02012070A43C3F8842007
:1049D000224B224AD2F88C2022F01F017A68D26939
:1049E000013A0A43C3F88C201B4B01221A60FFF7DF
:1049F00041FFC7F8C40009E0FFF73CFF0246D7F8C3
:104A0000C430D31A642B01D90323BBE1134B1B68B9
:104A100003F00063002BEFD07B681B6803F00403F6
:104A2000002B06D17B681B6803F00803002B00F005
:104A30000D810B4B00221A60FFF71CFFC7F8C40062
:104A400010E0FFF717FF0246D7F8C430D31A642BE3
:104A500008D9032396E100BF6800474200380240AE
:104A600070004742A84B1B6803F00053002BE8D1AD
:104A70007B681B6803F00403002B69D0A24BD3F8BA
:104A8000883003F0E0424FF0E043C7F88C30D7F8AD
:104A90008C3093FAA3F3C7F88830D7F88830C7F87A
:104AA0008430D7F88430B3FA83F3C7F88030D7F86E
:104AB0008030DBB222FA03F3C7F8C030924B7A6839
:104AC000116947F6C072FA67FA6F92FAA2F2BA67F2
:104AD000BA6F7A677A6FB2FA82F23A673A6FD2B2F5
:104AE00091407A6850694FF07062FA66FA6E92FAF5
:104AF000A2F2BA66BA6E7A667A6EB2FA82F23A6652
:104B00003A6ED2B200FA02F211434FF0E042FA6577
:104B1000FA6D92FAA2F2BA65BA6D7A657A6DB2FA56
:104B200082F23A653A6DD2B2D7F8C00000FA02F2CA
:104B30000A43C3F88820744B734AD2F88C2022F4BD
:104B4000F8517A68126A013A12020A43C3F88C20BB
:104B50007B681B6803F00803002B5FD06A4BD3F817
:104B6000883003F070624FF07063FB64FB6C93FA63
:104B7000A3F3BB64BB6C7B647B6CB3FA83F33B64D1
:104B80003B6CDBB222FA03F3C7F8C0305E4B7A68A5
:104B9000116947F6C072FA63FA6B92FAA2F2BA632D
:104BA000BA6B7A637A6BB2FA82F23A633A6BD2B238
:104BB00091404FF07062FA62FA6A92FAA2F2BA6217
:104BC000BA6A7A627A6AB2FA82F23A623A6AD2B21D
:104BD000D7F8C00000FA02F211437A6890694FF0EA
:104BE000E042FA61FA6992FAA2F2BA61BA697A61AC
:104BF0007A69B2FA82F23A613A69D2B200FA02F202
:104C00000A43C3F88820404B3F4AD2F88C2022F454
:104C100040317A68526A0A43C3F88C203B4B012228
:104C20001A60FFF727FEC7F8C40009E0FFF722FE6D
:104C30000246D7F8C430D31A642B01D90323A1E06C
:104C4000314B1B6803F00053002BEFD07B681B68CF
:104C500003F02003002B00F089802B4B2A4A126CB2
:104C600042F080521A64284B1B6C03F08053FB60A7
:104C7000FB68274B264A126842F480721A60FFF7DD
:104C8000F9FDC7F8C40009E0FFF7F4FD0246D7F8C4
:104C9000C430D31A642B01D9032373E01C4B1B6867
:104CA00003F48073002BEFD0174B1A6F7B689B6A5D
:104CB000534003F44073002B58D0134B1B6F23F465
:104CC0004073C7F8C030134B01221A60114B002209
:104CD0001A600D4BD7F8C0201A67D7F8C03003F020
:104CE0000203002B1ED0FFF7C5FDC7F8C40013E078
:104CF000FFF7C0FD0246D7F8C430D21A41F288331C
:104D00009A4209D903233DE000380240700047422F
:104D100000700040400E47421C4B1B6F03F0020323
:104D2000002BE5D07B689B6A03F44073B3F5407FAA
:104D30000DD1164A154B9B6823F4F8117B689B6ACA
:104D400023F0704323F440730B43936005E00F4B53
:104D50000E4A926822F4F8129A600C4B0B4A116FBB
:104D60007A68926AC2F30B020A431A677B681B686F
:104D700003F01003002B04D0054B7A6892F82C2026
:104D80001A6000231846C837BD4680BD003802406F
:104D9000E011474280B582B000AF0346FB71FB795A
:104DA0000A2B02D10D20FFF7F5FF0C4B1B68002BDF
:104DB00007D00A4B1B68591C084A1160FA791A700F
:104DC00008E0074B1B68002B04D0054B1B68FA79E1
:104DD000104698470837BD4680BD00BF240B002011
:104DE000243B002080B582B000AF786006E07B688D
:104DF0005A1C7A601B781846FFF7CCFF7B681B783B
:104E0000002BF4D10837BD4680BD00BF80B58EB001
:104E100000AF786039607B685A1C7A601B78FB773A
:104E2000FB7F002B00D166E1FB7F252B04D0FB7FAD
:104E30001846FFF7AFFF5DE100237B627B685A1CD9
:104E40007A601B78FB77FB7F302B07D101237B62D5
:104E50007B685A1C7A601B78FB7709E0FB7F2D2B5F
:104E600006D102237B627B685A1C7A601B78FB7731
:104E70000023BB620EE0BA6A13469B0013445B003A
:104E80001A46FB7F1344303BBB627B685A1C7A6036
:104E90001B78FB77FB7F2F2B02D9FB7F392BEAD9BD
:104EA000FB7F6C2B02D0FB7F4C2B08D17B6A43F03D
:104EB00004037B627B685A1C7A601B78FB77FB7F5C
:104EC000002B00D117E1FB7FBB77BB7F602B02D9A2
:104ED000BB7F203BBB77BB7F423B162B73D801A126
:104EE00051F823F0AF4F00089D4F0008BB4F00085A
:104EF000C74F0008C74F0008C74F0008C74F00083A
:104F0000C74F0008C74F0008C74F0008C74F000829
:104F1000C74F0008C74F0008B54F0008C74F00082B
:104F2000C74F0008C74F0008414F0008C74F00088F
:104F3000BB4F0008C74F0008C74F0008C14F00080B
:104F40003B681A1D3A601B68BB610023FB6202E0EC
:104F5000FB6A0133FB62BA69FB6A13441B78002BBE
:104F6000F6D102E02020FFF715FF7B6A03F0020371
:104F7000002B05D1FB6A5A1CFA62BA6A9342F1D33C
:104F8000B869FFF72FFF02E02020FFF703FFFB6A5D
:104F90005A1CFA62BA6A9342F6D3ABE03B681A1D18
:104FA0003A601B68DBB21846FFF7F4FEA2E002236A
:104FB0007B630DE008237B630AE00A237B6307E041
:104FC00010237B6304E0FB7F1846FFF7E3FE91E0CC
:104FD0007B6A03F00403002B04D03B681A1D3A607F
:104FE0001B680BE0BB7F442B04D13B681A1D3A6061
:104FF0001B6803E03B681A1D3A601B683B62BB7F7D
:10500000442B09D13B6A002B06DA3B6A5B423B62C8
:105010007B6A43F008037B6200233B633B6A7A6B45
:10502000B3FBF2F2796B01FB02F29B1ABB773A6A8F
:105030007B6BB2FBF3F33B62BB7F092B08D9FB7F91
:10504000782B01D1272300E00723BA7F1344BB77D5
:105050003B6B5A1C3A63BA7F3032D2B207F1380147
:105060000B4403F8302C3B6A002B02D03B6B0F2B18
:10507000D4D97B6A03F00803002B08D03B6B5A1C81
:105080003A6307F1380213442D2203F8302C3B6BAE
:10509000FB627B6A03F00103002B01D0302300E0A8
:1050A0002023BB7703E0BB7F1846FFF773FE7B6AC4
:1050B00003F00203002B05D1FB6A5A1CFA62BA6A9C
:1050C0009342F0D33B6B013B3B6307F108023B6B20
:1050D00013441B781846FFF75DFE3B6B002BF1D1A4
:1050E00002E02020FFF756FEFB6A5A1CFA62BA6AF9
:1050F0009342F6D38FE63837BD4680BD0EB480B5F7
:1051000085B000AF78600B4B7A681A6007F1200316
:10511000FB60F869F968FFF779FE064B1B6800220F
:105120001A70044B00221A601437BD46BDE8804057
:1051300003B07047240B002080B483B000AF034657
:10514000FB80124B00221A60FB8803F478431B0299
:105150001A460E4B1B681A430C4B1A60FB8803F46B
:10516000FC635B011A46094B1B681A43074B1A6024
:10517000FB88DB00DAB2054B1B681A43034B1A604D
:105180000C37BD465DF8047B704700BFC0000020AF
:1051900080B582B000AF0B463A600246FA80BB8011
:1051A000FA88BB8812B21BB21046194601223B682E
:1051B00000F096FA0837BD4680BD00BF80B483B0CA
:1051C00000AF214B4FF050429A601F4B00225A61B2
:1051D0001D4BF0221A801C4B4FF4A0725A801A4BC0
:1051E0004FF496329A61184BF022DA80164B4FF446
:1051F000A0729A80144B00225A77134B02229A779E
:10520000114B9B7FDBB24FF4963202FB03F31A463D
:105210000D4BDA600C4B00221A740C4B0C4A1A60CE
:105220000C4B0C4A126B42F400021A63094B1B6BC5
:1052300003F400037B607B68034B01221A770C3771
:10524000BD465DF8047B70472C3B0020280B0020F6
:1052500000B002400038024080B483B000AF034683
:10526000FB71FB79064AD26802FB03F2044B5A61D8
:10527000034BFA791A740C37BD465DF8047B70470E
:105280002C3B002090B482B000AF0B463A6002463F
:10529000FA80BB80444B5B7FDBB2012B16D1424BC3
:1052A0009A68414B5B691A443F4B9B7FDBB2B988DC
:1052B0003D48008880B200FB01F0F988014401FB01
:1052C00003F313443A6892B21A8069E0364B5B7F6D
:1052D000DBB2002B22D1344B9A68334B5B691A4402
:1052E000314B9B7FDBB23049498889B20846B98887
:1052F000411A01392C48008880B200FB01F02A498C
:10530000098889B20C46F988611A0139014401FB08
:1053100003F313443A6892B21A8041E0224B5B7F58
:10532000DBB2032B1BD1204B9A681F4B5B691A44DD
:105330001D4B9B7FDBB2F9881B48008880B200FBC5
:1053400001F01949098889B20844B988411A01391C
:1053500001FB03F313443A6892B21A8020E0124B27
:105360005B7FDBB2022B1BD10F4B9A680E4B5B6944
:105370001A440D4B9B7FDBB20B49498889B2084622
:10538000F988411A01390848008880B200FB01F011
:10539000B988014401FB03F313443A6892B21A80BE
:1053A0000837BD4690BC70472C3B002080B483B0CA
:1053B00000AF0346FB71FB79032B00D91DE0114BB5
:1053C000FA795A77FB79002B02D0FB79012B0AD1AD
:1053D0000C4B5B889AB20B4BDA800A4B1B889AB253
:1053E000084B9A8009E0074B1B889AB2054BDA807C
:1053F000044B5B889AB2034B9A800C37BD465DF82C
:10540000047B70472C3B002080B584B002AF7860ED
:105410001C4B4FF440325A601A4B02229A60194BCF
:105420000022DA607B689BB21846FFF785FE1548BC
:10543000FDF738F80346002B21D1134B1B7CDBB260
:1054400010481946FDF77AF90346002B17D10F4B88
:1054500019680D4B9A680C4B5B691A440A4B1B8800
:105460009BB20948408880B200900648FDF782F858
:105470000346002B03D103481421FDF7AFF808378A
:10548000BD4680BD280B00202C3B0020C000002022
:1054900080B582B000AFF880B9807A803B80FA880E
:1054A000BB8811B21AB23B88084611461A463B69BE
:1054B00000F02EF8FA887B8813449BB2013B9BB224
:1054C0009AB2BB8811B21AB23B88084611461A46F6
:1054D0003B6900F01DF8FA88BB8811B21AB27B88CC
:1054E000084611461A463B6900F0FAF8FA88B9886E
:1054F0003B880B449BB29BB211B21AB27B88084620
:1055000011461A463B6900F0EBF80837BD4680BDEE
:1055100090B585B000AF7B600346FB810B46BB8135
:1055200013467B816D4B1B7FDBB2012B00D0D1E09A
:10553000B7F90E20694B9B889BB29A4209DAB7F9FA
:105540000C20664BDB889BB29A4202DA7B89002BE7
:1055500000D1BFE0B7F90E30002B01DA0023FB8148
:10556000B7F90C30002B01DA0023BB81B7F90C200E
:105570007B891A44594BDB889BB29A4205DB574B17
:10558000DB889AB2BB89D31A7B817B689BB21846B1
:10559000FFF7D2FD514B5B7FDBB2012B1BD14F4B91
:1055A0009B7FDBB2B7F90C204C49098889B201FB1B
:1055B00002F1B7F90E200A4402FB03F31946474BE8
:1055C0001B889BB2013B1A467B89084611461A4646
:1055D000012300F0BFFA414B5B7FDBB2002B27D1E8
:1055E0003E4B9B7FDBB23D4A528892B211467A898C
:1055F000891AB7F90C208A1A3849098889B201FB3F
:1056000002F1364A128892B21144B7F90E208A1A72
:10561000013A02FB03F31946304B1B889BB2013B56
:105620001A467B89084611461A46012300F092FA71
:105630002A4B5B7FDBB2032B23D1284B9B7FDBB252
:10564000264A128892B21146B7F90C20891A7A8933
:10565000891A224A128892B2B7F90E0000FB02F2B0
:105660000A4402FB03F319461C4B1B889BB21A46E3
:105670007B89D31A1A467B8908461146012200F01D
:1056800069FA164B5B7FDBB2022B21D1134B9B7F58
:10569000DBB2B7F90C10114A128892B20F48408859
:1056A00080B2441EB7F90E00201A00FB02F20A4431
:1056B00002FB03F31946094B1B889BB21A467B89F0
:1056C000D31A1A467B8908461146012200F042FA95
:1056D00000F0E8F91437BD4690BD00BF2C3B002018
:1056E00090B585B000AF7B600346FB810B46BB8164
:1056F00013467B816F4B1B7FDBB2012B00D0D5E0C3
:10570000B7F90E206B4B9B889BB29A4209DAB7F926
:105710000C20684BDB889BB29A4202DA7B89002B13
:1057200000D1C3E0B7F90E30002B05DAFA897B8986
:1057300013447B810023FB81B7F90C30002B01DA85
:105740000023BB81B7F90E207B891A44594B9B88F3
:105750009BB29A4205DB574B9B889AB2FB89D31ABE
:105760007B817B689BB21846FFF7E6FC514B5B7F61
:10577000DBB2012B1CD14F4B9B7FDBB2B7F90C2066
:105780004C49098889B201FB02F1B7F90E200A449D
:1057900002FB03F31946474B1B889BB21A467B89D1
:1057A000D31A1A467B8908461146012200F0D2F925
:1057B000404B5B7FDBB2002B27D13E4B9B7FDBB2A4
:1057C0003C4A528892B2511EB7F90C208A1A3949C4
:1057D000098889B201FB02F1364A128892B211445B
:1057E000B7F90E20891A7A898A1A02FB03F319463F
:1057F000304B1B889BB21A467B89D31A1A467B8989
:1058000008461146012200F0A5F92A4B5B7FDBB266
:10581000032B21D1274B9B7FDBB2264A128892B201
:105820001146B7F90C208A1A511E224A128892B2E8
:10583000B7F90E0000FB02F20A4402FB03F319461B
:105840001C4B1B889BB2013B1A467B8908461146BC
:105850001A46012300F07EF9164B5B7FDBB2022B68
:1058600022D1144B9B7FDBB2B7F90C10114A12887E
:1058700092B21048408880B204467889241AB7F959
:105880000E00201A00FB02F20A4402FB03F3194641
:10589000084B1B889BB2013B1A467B890846114680
:1058A0001A46012300F056F900F0FCF81437BD4603
:1058B00090BD00BF2C3B002080B58AB000AFF880BF
:1058C000B9807A803B8000233B820023FB81002348
:1058D000FB840023BB8400237B8400233B840023C0
:1058E000FB830023BB8300237B8300233B830023B4
:1058F000FB820023BB8200237B82B7F90220B7F929
:105900000630D31A002BB8BF5B423B82B7F90020A8
:10591000B7F90430D31A002BB8BF5B42FB81FB8878
:10592000FB84BB88BB84B7F90220B7F906309A42E2
:1059300004DB01237B8401233B8405E04FF6FF73E6
:105940007B844FF6FF733B84B7F90020B7F904302E
:105950009A4204DB0123FB830123BB8305E04FF65E
:10596000FF73FB834FF6FF73BB83B7F91020B7F9C2
:105970000E309A4210DB00237B840023BB833B8ADA
:105980007B83B7F91030DA0F13445B103B83FB893C
:10599000FB823B8ABB820FE000233B840023FB8316
:1059A000FB897B83B7F90E30DA0F13445B103B831E
:1059B0003B8AFB82FB89BB8200237B822DE0FA8C31
:1059C000BB8C104619463A6BFFF7E2FB3A8BFB8A19
:1059D00013449BB23B83B7F91820B7F91A309A42A7
:1059E0000EDB3A8B7B8BD31A9BB23B83FA8C7B8C7E
:1059F00013449BB2FB84BA8CFB8B13449BB2BB84D5
:105A0000FA8C3B8C13449BB2FB84BA8CBB8B134443
:105A10009BB2BB847B8A01337B82B7F91220B7F932
:105A200014309A42CBDD2837BD4680BD80B582B0A8
:105A300000AF78607B681A88194B1A807B685A8897
:105A4000174B5A807B689A68154B9A607B68DA68B6
:105A5000134BDA607B681A79114B9A77104B1B88CD
:105A60009BB20F4A528892B202FB03F31A460C4BC8
:105A70009A617B681A7C0A4B5A77094B1B889AB249
:105A8000074B9A80064B5B889AB2054BDA80044B31
:105A90005B7FDBB21846FFF789FC0837BD4680BD47
:105AA0002C3B002080B582B002AF00BF224B1B68A8
:105AB00003F00103002BF9D11F4B02229A601F4B08
:105AC0004FF440325A601D4B02229A601C4B1B88D7
:105AD0009BB21A461B4B1B68D21A184BDA60174848
